:020000040000fa
:080000000002040000000000f2
:020000040000fa
:04000800c80200002a
:020000040000fa
:04000c00c802000026
:020000040000fa
:04001000c802000022
:020000040000fa
:04001400c80200001e
:020000040000fa
:04001800c80200001a
:020000040000fa
:04001c00c802000016
:020000040000fa
:04002000c802000012
:020000040000fa
:04002400c80200000e
:020000040000fa
:04002800c80200000a
:020000040000fa
:04002c00c802000006
:020000040000fa
:04003000c802000002
:020000040000fa
:04003400c8020000fe
:020000040000fa
:04003800c8020000fa
:020000040000fa
:04003c00c8020000f6
:020000040000fa
:04004000c8020000f2
:020000040000fa
:04004400c8020000ee
:020000040000fa
:04004800c8020000ea
:020000040000fa
:04004c00c8020000e6
:020000040000fa
:04005000c8020000e2
:020000040000fa
:04005400c8020000de
:020000040000fa
:04005800c8020000da
:020000040000fa
:04005c00c8020000d6
:020000040000fa
:04006000c8020000d2
:020000040000fa
:04006400c8020000ce
:020000040000fa
:04006800c8020000ca
:020000040000fa
:04006c00c8020000c6
:020000040000fa
:04007000c8020000c2
:020000040000fa
:04007400c8020000be
:020000040000fa
:04007800c8020000ba
:020000040000fa
:04007c00c8020000b6
:020000040000fa
:04008000c8020000b2
:020000040000fa
:04008400c8020000ae
:020000040000fa
:04008800c8020000aa
:020000040000fa
:04008c00c8020000a6
:020000040000fa
:04009000c8020000a2
:020000040000fa
:04009400c80200009e
:020000040000fa
:04009800c80200009a
:020000040000fa
:04009c00c802000096
:020000040000fa
:0400a000c802000092
:020000040000fa
:0400a400c80200008e
:020000040000fa
:0400a800c80200008a
:020000040000fa
:0400ac00c802000086
:020000040000fa
:0400b000c802000082
:020000040000fa
:0400b400c80200007e
:020000040000fa
:0400b800c80200007a
:020000040000fa
:0400bc00c802000076
:020000040000fa
:0400c000c802000072
:020000040000fa
:0400c400c80200006e
:020000040000fa
:0400c800c80200006a
:020000040000fa
:0400cc00c802000066
:020000040000fa
:0400d000c802000062
:020000040000fa
:0400d400c80200005e
:020000040000fa
:0400d800c80200005a
:020000040000fa
:0400dc00c802000056
:020000040000fa
:0400e000c802000052
:020000040000fa
:0400e400c80200004e
:020000040000fa
:0400e800c80200004a
:020000040000fa
:0400ec00c802000046
:020000040000fa
:0400f000c802000042
:020000040000fa
:0400f400c80200003e
:020000040000fa
:0400f800c80200003a
:020000040000fa
:0400fc00c802000036
:020000040000fa
:04010000c802000031
:020000040000fa
:04010400c80200002d
:020000040000fa
:04010800c802000029
:020000040000fa
:04010c00c802000025
:020000040000fa
:04011000c802000021
:020000040000fa
:04011400c80200001d
:020000040000fa
:04011800c802000019
:020000040000fa
:04011c00c802000015
:020000040000fa
:04012000c802000011
:020000040000fa
:04012400c80200000d
:020000040000fa
:04012800c802000009
:020000040000fa
:04012c00c802000005
:020000040000fa
:04013000c802000001
:020000040000fa
:04013400c8020000fd
:020000040000fa
:04020800c802000028
:020000040000fa
:04020c00c802000024
:020000040000fa
:04021000c802000020
:020000040000fa
:04021400c80200001c
:020000040000fa
:04021800c802000018
:020000040000fa
:04021c00c802000014
:020000040000fa
:04022000c802000010
:020000040000fa
:04022400c80200000c
:020000040000fa
:04022800c802000008
:020000040000fa
:04022c00c802000004
:020000040000fa
:04023000c802000000
:020000040000fa
:04023400c8020000fc
:020000040000fa
:04023800c8020000f8
:020000040000fa
:04023c00c8020000f4
:020000040000fa
:04024000c8020000f0
:020000040000fa
:04024400c8020000ec
:020000040000fa
:04024800c8020000e8
:020000040000fa
:04024c00c8020000e4
:020000040000fa
:04025000c8020000e0
:020000040000fa
:04025400c8020000dc
:020000040000fa
:04025800c8020000d8
:020000040000fa
:04025c00c8020000d4
:020000040000fa
:04026000c8020000d0
:020000040000fa
:04026400c8020000cc
:020000040000fa
:04026800c8020000c8
:020000040000fa
:04026c00c8020000c4
:020000040000fa
:04027000c8020000c0
:020000040000fa
:04027400c8020000bc
:020000040000fa
:04027800c8020000b8
:020000040000fa
:04027c00c8020000b4
:020000040000fa
:04028000c8020000b0
:020000040000fa
:04028400c8020000ac
:020000040000fa
:04028800c8020000a8
:020000040000fa
:04028c00c8020000a4
:020000040000fa
:04029000c8020000a0
:020000040000fa
:04029400c80200009c
:020000040000fa
:04029800c802000098
:020000040000fa
:04029c00c802000094
:020000040000fa
:0402a000c802000090
:020000040000fa
:0402a400c80200008c
:020000040000fa
:0402a800c802000088
:020000040000fa
:0402ac00c802000084
:020000040000fa
:0402b000c802000080
:020000040000fa
:0402b400c80200007c
:020000040000fa
:0402b800c802000078
:020000040000fa
:0402bc00c802000074
:020000040000fa
:0402c000c802000070
:020000040000fa
:0402c400c80200006c
:020000040000fa
:0402c800c802000068
:020000040000fa
:0402cc00c802000064
:020000040000fa
:0402d000c802000060
:020000040000fa
:0402d400c80200005c
:020000040000fa
:0402d800c802000058
:020000040000fa
:0402dc00c802000054
:020000040000fa
:0402e000c802000050
:020000040000fa
:0402e400c80200004c
:020000040000fa
:0402e800c802000048
:020000040000fa
:0402ec00c802000044
:020000040000fa
:0402f000c802000040
:020000040000fa
:0402f400c80200003c
:020000040000fa
:0402f800c802000038
:020000040000fa
:0402fc00c802000034
:020000040000fa
:04030000c80200002f
:020000040000fa
:04030400c80200002b
:020000040000fa
:04030800c802000027
:020000040000fa
:04030c00c802000023
:020000040000fa
:04031000c80200001f
:020000040000fa
:04031400c80200001b
:020000040000fa
:04031800c802000017
:020000040000fa
:04031c00c802000013
:020000040000fa
:04032000c80200000f
:020000040000fa
:04032400c80200000b
:020000040000fa
:04032800c802000007
:020000040000fa
:04032c00c802000003
:020000040000fa
:04033000c8020000ff
:020000040000fa
:04033400c8020000fb
:020000040000fa
:10040000af8020000e7f22000e0188000000000057
:10041000000020000000e000020032000001200087
:1004200020028800140007005b0007000000e000c5
:1004300003003a00606d2000010020000200370038
:100440000000200001002000810f70000100320038
:1004500014000700000020000000e000020032004d
:1004600000000200000000005a0602000000000028
:100470000040da000000fe004440a900a000200077
:100480000000e0000300320000002000a00188000e
:100490004440a800000006008a1f78008b1f7800e7
:1004a0000000060091018800800478000000eb0045
:1004b0001a003700e284440032a0b4009905ba0063
:1004c000e284440032a0b4009906ba00e2844400f9
:1004d00032a0b4000006eb00476fde00fd07b2005b
:1004e000636ce10003003a00ebff07000000eb0043
:1004f0000a003700606ce10004003a00005deb0088
:100500008b05e900fdff3e00040037006168e10053
:10051000010032000086eb000b00070019c7ba008b
:100520001905ba000e04e00003003a000a00e000da
:10053000e0ff3a0000000600fe07b2009e018800be
:100540008a047800f5ff3700395dba008b05e900b1
:100550000c003200295dba008b05e900080032006a
:100560000c00e00003003a00e284440032a0b40032
:10057000f5ff370019ddba008b05e900faff3a00f4
:100580008904e800e184440032a0b40000000600c1
:0c0590000040da000000fe000000050042
:020000040000fa
:10059c00070e00001c38000070e0000070380000ee
:0405ac001c0e000021
:020000040000fa
:1005b0000200fa000040eb00004f78000080eb00e2
:1005c00060198800c022ef00010037000000000021
:1005d0001e80fb002016880000242400f10020006b
:1005e000e40107001e4fe8001e4078000004e00010
:1005f00002003a000040eb00004f7800a116800096
:1006000000042000008060000000e00004003a00c8
:10061000404080000000e9004040880009003700a9
:10062000a116800000082000008060000000e000ab
:10063000e6ff3a00404080000000e80040408800ab
:10064000000000000080fa00000006000200fa002e
:100650000040eb00004f78000080eb00601988003c
:10066000c022ef0001003700000000001e80fb00e8
:100670002016880000242400f1002000bd0107009e
:100680001e4fe9001e4078000004e00002003a001e
:100690000040eb00004f7800a1168000000420000d
:1006a000008060000000e00004003a00404080004c
:1006b0000000e9004040880009003700a1168000d2
:1006c00000082000008060000000e000e6ff3a0023
:1006d000404080000000e80040408800000000002a
:1006e0000080fa00000006000200fa000040eb0063
:1006f000004f78000080eb0060198800c022ef00f6
:1007000001003700000000001e80fb000000d10047
:10071000004078001e406800104798001e4fe80017
:100720001e4090000080fb0020168800002424005a
:10073000f10020008f010700a116800000042000b6
:10074000008060000000e00004003a0040408000ab
:100750000000e9004040880009003700a116800031
:1007600000082000008060000000e000e5ff3a0083
:10077000404080000000e800404088000000000089
:100780000080fa00000006000200fa0000c0eb0042
:10079000004f78000080eb0060198800c022ef0055
:1007a00001003700000000001e80fb000000d100a7
:1007b000004078001e406800104798001e4fe90076
:1007c0001e4090000080fb002016880000242400ba
:1007d000f100200067010700a1168000000420003e
:1007e000008060000000e00004003a00404080000b
:1007f0000000e9004040880009003700a116800091
:1008000000082000008060000000e000e5ff3a00e2
:10081000404080000000e8004040880000000000e8
:100820000080fa00000006000200fa000040eb0021
:10083000004f78000080eb0060198800c022ef00b4
:1008400001003700000000009e80fb00d0cc2c008f
:100850000008b8004308de00004078000080fb007c
:100860004400dd00804178001e81fb00d0cc2c00cc
:100870000010b8004308de006a00b90000007800ec
:10088000000051000040780000c07100104798003f
:100890001e4fe8001e4090000080fb0020168800dc
:1008a00000122a007100200032010700a11680000a
:1008b00000042000008060000000e00004003a0016
:1008c000404080000000e9004040880009003700f7
:1008d000a116800000082000008060000000e000f9
:1008e000d8ff3a00404080000000e8004040880007
:1008f000000000000080fa00000006000200fa007c
:1009000030c6b300004f78000080eb00601988000b
:10091000c022ef0001003700000000009e80fb00b5
:10092000d0cc2c000008b8004308de00004078005e
:100930000080fb004400dd00804178001e81fb0048
:10094000d0cc2c000010b8004308de006a00b900cb
:1009500000007800000051000040780000c07100e5
:10096000104798001e4fe9001e4090000080fb00d9
:100970002016880000122a0071002000fd000700e8
:10098000a116800000042000008060000000e0004c
:1009900004003a00404080000000e9004040880028
:1009a00009003700a11680000008200000806000c8
:1009b0000000e000d8ff3a00404080000000e8005e
:1009c00040408800000000000080fa00000006009f
:1009d0000c00fa00e2004700e22c280009000900a0
:1009e000b2587800c022ef000080eb00901688001b
:1009f0000000eb00000f780001003700000000004d
:100a00000e80e8001e004000104078000080fb00cf
:100a10002016880000242400f1002000d5000700e3
:100a20001e0fe8001e007800ea0f500002003a0096
:100a30000000eb00000f7800a116800000042000e9
:100a4000008060000000e00004003a0040408000a8
:100a50000000e9004040880009003700a11680002e
:100a600000082000008060000000e000e3ff3a0082
:100a7000404080000000e800404088000000000086
:100a80000080fa00000006000c00fa000040eb00b5
:100a9000004f7800c022ef000080eb009016880025
:100aa0000000eb00100798000000eb002007980002
:100ab0000000eb00300798003a00370010002000db
:100ac000400798003e0090000000e80050079800a2
:100ad0001d0037009e80fb004e009000008040000b
:100ae000201688004e00900000004000400798004b
:100af00000242400f10020009e000700a1168000c1
:100b000000042000008060000000e00003003a00c4
:100b100010002000100798000e003700a11680007a
:100b200000082000008060000000e00003003a00a0
:100b30001000200020079800060037005e0090009b
:100b40000000e800500798005e009000e70f50009a
:100b5000e0ff34004e009000004078001e4f40003f
:100b60001e009000e10f500004003a004040800059
:100b70000000e900404088000d0037002e00900082
:100b8000e10f500004003a00404080000000e800ff
:100b900040408800060037003e0090000000e8005a
:100ba000300798003e009000e70f5000c3ff34006c
:100bb0000080fa00000006000200fa0030c7b3000f
:100bc000004f7800c022ef000080eb0090168800f4
:100bd000330037001e80fb000000d1000040780089
:100be0001e406800804078001e80fb004400de004c
:100bf0000040780080c068001e80fb004500de00d9
:100c00000040780080c068001e80fb004600de00c7
:100c10000040780000c06800104798001e80fb006c
:100c20000000d10000407800804078001e80fb006a
:100c30004600dd000040780000c07000004f7800e2
:100c40001e4090000080fb00201688000024240035
:100c5000f100200047000700a116800000042000da
:100c6000008060000000e00004003a004040800086
:100c70000000e900404088000c003700a116800009
:100c800000082000008060000000e00004003a003e
:100c9000404080000000e80040408800030037002a
:100ca0001e4078000004e000caff3a000080fa000d
:100cb000000006000000fa00404080000000e00054
:100cc00001003d000828ef00404080000000e000e7
:100cd00001003a0036fe070040408000e10f50005e
:100ce00001003a0059fe070040408000e20f50002a
:100cf00001003a007cfe070040408000e30f5000f6
:100d000001003a00a0fe070040408000e40f5000c0
:100d100001003a00c4fe070040408000e50f50008b
:100d200001003a00f5fe070040408000e60f500049
:100d300001003a0026ff070040408000e70f500006
:100d400001003a0050ff070040408000e80f5000cb
:100d500001003a0098ff070040408000e80f500073
:100d6000010034000828ef000000eb000080fa00ca
:040d70000000060079
:020000040000fa
:100d7400f03fb1000180b10006003500ee03090028
:100d840000000000403fb1000180b100fbff3d00c6
:100d94001000b000203fb0000200350000800900c0
:080da400000000000000060041
:020000040000fa
:100dac00000800000a000000000000000000000025
:020000040000fa
:020000040002f8
:04aff8009f7800003e
:020000040000fa
:020000040002f8
:04affc007f3f000093
:00000001FF
