:020000040000fa
:080000000002040000000000f2
:020000040000fa
:04000800f8020000fa
:020000040000fa
:04000c00f8020000f6
:020000040000fa
:04001000f8020000f2
:020000040000fa
:04001400f8020000ee
:020000040000fa
:04001800f8020000ea
:020000040000fa
:04001c00f8020000e6
:020000040000fa
:04002000f8020000e2
:020000040000fa
:04002400f8020000de
:020000040000fa
:04002800f8020000da
:020000040000fa
:04002c00f8020000d6
:020000040000fa
:04003000f8020000d2
:020000040000fa
:04003400c8020000fe
:020000040000fa
:04003800f8020000ca
:020000040000fa
:04003c00f8020000c6
:020000040000fa
:04004000f8020000c2
:020000040000fa
:04004400f8020000be
:020000040000fa
:04004800f8020000ba
:020000040000fa
:04004c00f8020000b6
:020000040000fa
:04005000f8020000b2
:020000040000fa
:04005400f8020000ae
:020000040000fa
:04005800f8020000aa
:020000040000fa
:04005c00f8020000a6
:020000040000fa
:04006000f8020000a2
:020000040000fa
:04006400f80200009e
:020000040000fa
:04006800f80200009a
:020000040000fa
:04006c00f802000096
:020000040000fa
:04007000f802000092
:020000040000fa
:04007400f80200008e
:020000040000fa
:04007800f80200008a
:020000040000fa
:04007c00f802000086
:020000040000fa
:04008000f802000082
:020000040000fa
:04008400f80200007e
:020000040000fa
:04008800f80200007a
:020000040000fa
:04008c00f802000076
:020000040000fa
:04009000f802000072
:020000040000fa
:04009400f80200006e
:020000040000fa
:04009800f80200006a
:020000040000fa
:04009c00f802000066
:020000040000fa
:0400a000f802000062
:020000040000fa
:0400a400f80200005e
:020000040000fa
:0400a800f80200005a
:020000040000fa
:0400ac00f802000056
:020000040000fa
:0400b000f802000052
:020000040000fa
:0400b400f80200004e
:020000040000fa
:0400b800f80200004a
:020000040000fa
:0400bc00f802000046
:020000040000fa
:0400c000f802000042
:020000040000fa
:0400c400f80200003e
:020000040000fa
:0400c800f80200003a
:020000040000fa
:0400cc00f802000036
:020000040000fa
:0400d000f802000032
:020000040000fa
:0400d400f80200002e
:020000040000fa
:0400d800f80200002a
:020000040000fa
:0400dc00f802000026
:020000040000fa
:0400e000f802000022
:020000040000fa
:0400e400f80200001e
:020000040000fa
:0400e800f80200001a
:020000040000fa
:0400ec00f802000016
:020000040000fa
:0400f000f802000012
:020000040000fa
:0400f400f80200000e
:020000040000fa
:0400f800f80200000a
:020000040000fa
:0400fc00f802000006
:020000040000fa
:04010000f802000001
:020000040000fa
:04010400f8020000fd
:020000040000fa
:04010800f8020000f9
:020000040000fa
:04010c00f8020000f5
:020000040000fa
:04011000f8020000f1
:020000040000fa
:04011400f8020000ed
:020000040000fa
:04011800f8020000e9
:020000040000fa
:04011c00f8020000e5
:020000040000fa
:04012000f8020000e1
:020000040000fa
:04012400f8020000dd
:020000040000fa
:04012800f8020000d9
:020000040000fa
:04012c00f8020000d5
:020000040000fa
:04013000f8020000d1
:020000040000fa
:04013400f8020000cd
:020000040000fa
:04020800f8020000f8
:020000040000fa
:04020c00f8020000f4
:020000040000fa
:04021000f8020000f0
:020000040000fa
:04021400f8020000ec
:020000040000fa
:04021800f8020000e8
:020000040000fa
:04021c00f8020000e4
:020000040000fa
:04022000f8020000e0
:020000040000fa
:04022400f8020000dc
:020000040000fa
:04022800f8020000d8
:020000040000fa
:04022c00f8020000d4
:020000040000fa
:04023000f8020000d0
:020000040000fa
:04023400c8020000fc
:020000040000fa
:04023800f8020000c8
:020000040000fa
:04023c00f8020000c4
:020000040000fa
:04024000f8020000c0
:020000040000fa
:04024400f8020000bc
:020000040000fa
:04024800f8020000b8
:020000040000fa
:04024c00f8020000b4
:020000040000fa
:04025000f8020000b0
:020000040000fa
:04025400f8020000ac
:020000040000fa
:04025800f8020000a8
:020000040000fa
:04025c00f8020000a4
:020000040000fa
:04026000f8020000a0
:020000040000fa
:04026400f80200009c
:020000040000fa
:04026800f802000098
:020000040000fa
:04026c00f802000094
:020000040000fa
:04027000f802000090
:020000040000fa
:04027400f80200008c
:020000040000fa
:04027800f802000088
:020000040000fa
:04027c00f802000084
:020000040000fa
:04028000f802000080
:020000040000fa
:04028400f80200007c
:020000040000fa
:04028800f802000078
:020000040000fa
:04028c00f802000074
:020000040000fa
:04029000f802000070
:020000040000fa
:04029400f80200006c
:020000040000fa
:04029800f802000068
:020000040000fa
:04029c00f802000064
:020000040000fa
:0402a000f802000060
:020000040000fa
:0402a400f80200005c
:020000040000fa
:0402a800f802000058
:020000040000fa
:0402ac00f802000054
:020000040000fa
:0402b000f802000050
:020000040000fa
:0402b400f80200004c
:020000040000fa
:0402b800f802000048
:020000040000fa
:0402bc00f802000044
:020000040000fa
:0402c000f802000040
:020000040000fa
:0402c400f80200003c
:020000040000fa
:0402c800f802000038
:020000040000fa
:0402cc00f802000034
:020000040000fa
:0402d000f802000030
:020000040000fa
:0402d400f80200002c
:020000040000fa
:0402d800f802000028
:020000040000fa
:0402dc00f802000024
:020000040000fa
:0402e000f802000020
:020000040000fa
:0402e400f80200001c
:020000040000fa
:0402e800f802000018
:020000040000fa
:0402ec00f802000014
:020000040000fa
:0402f000f802000010
:020000040000fa
:0402f400f80200000c
:020000040000fa
:0402f800f802000008
:020000040000fa
:0402fc00f802000004
:020000040000fa
:04030000f8020000ff
:020000040000fa
:04030400f8020000fb
:020000040000fa
:04030800f8020000f7
:020000040000fa
:04030c00f8020000f3
:020000040000fa
:04031000f8020000ef
:020000040000fa
:04031400f8020000eb
:020000040000fa
:04031800f8020000e7
:020000040000fa
:04031c00f8020000e3
:020000040000fa
:04032000f8020000df
:020000040000fa
:04032400f8020000db
:020000040000fa
:04032800f8020000d7
:020000040000fa
:04032c00f8020000d3
:020000040000fa
:04033000f8020000cf
:020000040000fa
:04033400f8020000cb
:020000040000fa
:10040000af8020000e7f22000e0188000000000057
:10041000000020000000e000020032000001200087
:100420002002880014000700730007000000e000ad
:1004300003003a00805e2000010020000200370027
:100440000000200001002000810f70000100320038
:1004500014000700000020000000e000020032004d
:1004600000000200000000007a0502000000000009
:100470000040da000000fe004440a9000000200017
:100480000000e0000300320000002000a00188000e
:100490004440a800000006008a1f78008b1f7800e7
:1004a0000000060091018800800478000000eb0045
:1004b0001a003700e284440032a0b4009905ba0063
:1004c000e284440032a0b4009906ba00e2844400f9
:1004d00032a0b4000006eb00476fde00fd07b2005b
:1004e000636ce10003003a00ebff07000000eb0043
:1004f0000a003700606ce10004003a00005deb0088
:100500008b05e900fdff3e00040037006168e10053
:10051000010032000086eb000b00070019c7ba008b
:100520001905ba000e04e00003003a000a00e000da
:10053000e0ff3a0000000600fe07b2009e018800be
:100540008a047800f5ff3700395dba008b05e900b1
:100550000c003200295dba008b05e900080032006a
:100560000c00e00003003a00e284440032a0b40032
:10057000f5ff370019ddba008b05e900faff3a00f4
:100580008904e800e184440032a0b40000000600c1
:10059000801f78003400f80000002000a0018800cf
:1005a0000000fa0006c8bf000004e00003003a00a3
:1005b000004080000000e8000040880006c8bf003e
:1005c000e14f500003003a00004080000000e900c5
:1005d0000040880000408000201688008460a90048
:1005e0000080fa003400f9004f0078000040060057
:0c05f0000040da000000fe0000000500e2
:020000040000fa
:1005fc000200fa000040eb00004f78000080eb0096
:10060c0060198800c022ef000100370000000000d4
:10061c001e80fb002016880000242400f10020001e
:10062c005a0107001e4fe8001e4078000004e0004d
:10063c0002003a000040eb00004f7800a116800049
:10064c0000042000008060000000e00004003a007c
:10065c00404080000000e90040408800090037005d
:10066c00a116800000082000008060000000e0005f
:10067c00e6ff3a00404080000000e800404088005f
:10068c00000000000080fa00000006000200fa00e2
:10069c000040eb00004f78000080eb0060198800f0
:1006ac00c022ef0001003700000000001e80fb009c
:1006bc002016880000242400f100200033010700dc
:1006cc001e4fe9001e4078000004e00002003a00d2
:1006dc000040eb00004f7800a116800000042000c1
:1006ec00008060000000e00004003a004040800000
:1006fc000000e9004040880009003700a116800086
:10070c0000082000008060000000e000e6ff3a00d6
:10071c00404080000000e8004040880000000000dd
:10072c000080fa00000006000200fa000040eb0016
:10073c00004f78000080eb0060198800c022ef00a9
:10074c0001003700000000001e80fb000000d100fb
:10075c00004078001e406800104798001e4fe800cb
:10076c001e4090000080fb0020168800002424000e
:10077c00f100200005010700a116800000042000f4
:10078c00008060000000e00004003a00404080005f
:10079c000000e9004040880009003700a1168000e5
:1007ac0000082000008060000000e000e5ff3a0037
:1007bc00404080000000e80040408800000000003d
:1007cc000080fa00000006000200fa0000c0eb00f6
:1007dc00004f78000080eb0060198800c022ef0009
:1007ec0001003700000000001e80fb000000d1005b
:1007fc00004078001e406800104798001e4fe9002a
:10080c001e4090000080fb0020168800002424006d
:10081c00f1002000dd000700a1168000000420007c
:10082c00008060000000e00004003a0040408000be
:10083c000000e9004040880009003700a116800044
:10084c0000082000008060000000e000e5ff3a0096
:10085c00404080000000e80040408800000000009c
:10086c000080fa00000006000200fa000040eb00d5
:10087c00004f78000080eb0060198800c022ef0068
:10088c0001003700000000009e80fb00d0cc2c0043
:10089c000008b8004308de00004078000080fb0030
:1008ac004400dd00804178001e81fb00d0cc2c0080
:1008bc000010b8004308de006a00b90000007800a0
:1008cc00000051000040780000c0710010479800f3
:1008dc001e4fe8001e4090000080fb002016880090
:1008ec0000122a0071002000a8000700a116800049
:1008fc0000042000008060000000e00004003a00ca
:10090c00404080000000e9004040880009003700aa
:10091c00a116800000082000008060000000e000ac
:10092c00d8ff3a00404080000000e80040408800ba
:10093c00000000000080fa00000006000200fa002f
:10094c0030c6b300004f78000080eb0060198800bf
:10095c00c022ef0001003700000000009e80fb0069
:10096c00d0cc2c000008b8004308de000040780012
:10097c000080fb004400dd00804178001e81fb00fc
:10098c00d0cc2c000010b8004308de006a00b9007f
:10099c0000007800000051000040780000c0710099
:1009ac00104798001e4fe9001e4090000080fb008d
:1009bc002016880000122a00710020007300070026
:1009cc00a116800000042000008060000000e00000
:1009dc0004003a00404080000000e90040408800dc
:1009ec0009003700a116800000082000008060007c
:1009fc000000e000d8ff3a00404080000000e80012
:100a0c0040408800000000000080fa000000060052
:100a1c000200fa0070c0b300004f78000080eb00b9
:100a2c0060198800c022ef00080037001e80fb0010
:100a3c00201688001e40780000404000004f7800cf
:100a4c0000242400f10020005000070000ceb30069
:100a5c009e40780080cf5000f4ff3a000800370029
:100a6c001e80fb00201688001e80fb000000d100b9
:100a7c00004f780000242400f10020004300070000
:100a8c001e407800e74f5000f5ff3a00a116800099
:100a9c0000042000008060000000e00004003a0028
:100aac00404080000000e900404088000c00370006
:100abc00a116800000082000008060000000e0000b
:100acc0005003a00404080000000e80040408800eb
:100adc00000000000200370000000000dbff3700c0
:100aec000080fa00000006000000fa004040800080
:100afc000000e00002003d00600020004040880043
:100b0c00404080000000e00001003a00b8fe070001
:100b1c0040408000e10f500001003a00dbfe07006e
:100b2c0040408000e20f500001003a00fefe07003a
:100b3c0040408000e30f500001003a0022ff070004
:100b4c0040408000e40f500001003a0046ff0700cf
:100b5c0040408000e50f500001003a0077ff07008d
:100b6c0040408000e60f500001003a00a8ff07004b
:100b7c0040408000e60f5000010034000828ef00d0
:0c0b8c000000eb000080fa0000000600f2
:020000040000fa
:100b9800f03fb1000180b10006003500ee03090006
:100ba80000000000403fb1000180b100fbff3d00a4
:100bb8001000b000203fb00002003500008009009e
:080bc80000000000000006001f
:020000040000fa
:100bd000000800000a000000000000000000000003
:020000040000fa
:020000040002f8
:04aff8009f7800003e
:020000040000fa
:020000040002f8
:04affc007f3f000093
:00000001FF
